{
  "contractName": "StateLogTestContract",
  "abi": [
    {
      "inputs": [],
      "payable": false,
      "stateMutability": "nonpayable",
      "type": "constructor"
    },
    {
      "anonymous": false,
      "inputs": [
        {
          "indexed": false,
          "name": "command",
          "type": "uint8"
        },
        {
          "indexed": false,
          "name": "lable",
          "type": "string"
        },
        {
          "indexed": false,
          "name": "json",
          "type": "string"
        }
      ],
      "name": "addToLogs",
      "type": "event"
    },
    {
      "constant": false,
      "inputs": [
        {
          "name": "_owner",
          "type": "string"
        }
      ],
      "name": "fireEventAdd",
      "outputs": [],
      "payable": false,
      "stateMutability": "nonpayable",
      "type": "function"
    },
    {
      "constant": false,
      "inputs": [
        {
          "name": "_owner",
          "type": "string"
        }
      ],
      "name": "fireEventRemove",
      "outputs": [],
      "payable": false,
      "stateMutability": "nonpayable",
      "type": "function"
    }
  ],
  "bytecode": "0x608060405234801561001057600080fd5b506100946040805190810160405280600881526020017f6772656574696e670000000000000000000000000000000000000000000000008152506040805190810160405280600c81526020017f48656c6c6f20576f6c726c640000000000000000000000000000000000000000815250610099640100000000026401000000009004565b6101b2565b7fd28579bc883b0888ddf2755dbeadd01c68905fb3b59748ca48d646eaeb701bd560008383604051808460ff1681526020018060200180602001838103835285818151815260200191508051906020019080838360005b8381101561010b5780820151818401526020810190506100f0565b50505050905090810190601f1680156101385780820380516001836020036101000a031916815260200191505b50838103825284818151815260200191508051906020019080838360005b83811015610171578082015181840152602081019050610156565b50505050905090810190601f16801561019e5780820380516001836020036101000a031916815260200191505b509550505050505060405180910390a15050565b6104bd806101c16000396000f3fe608060405260043610610046576000357c0100000000000000000000000000000000000000000000000000000000900480638403bc471461004b578063a44e843114610113575b600080fd5b34801561005757600080fd5b506101116004803603602081101561006e57600080fd5b810190808035906020019064010000000081111561008b57600080fd5b82018360208201111561009d57600080fd5b803590602001918460018302840111640100000000831117156100bf57600080fd5b91908080601f016020809104026020016040519081016040528093929190818152602001838380828437600081840152601f19601f8201169050808301925050505050505091929192905050506101db565b005b34801561011f57600080fd5b506101d96004803603602081101561013657600080fd5b810190808035906020019064010000000081111561015357600080fd5b82018360208201111561016557600080fd5b8035906020019184600183028401116401000000008311171561018757600080fd5b91908080601f016020809104026020016040519081016040528093929190818152602001838380828437600081840152601f19601f82011690508083019250505050505050919291929050505061021d565b005b61021a6040805190810160405280600681526020017f6f776e65727300000000000000000000000000000000000000000000000000008152508261025f565b50565b61025c6040805190810160405280600681526020017f6f776e657273000000000000000000000000000000000000000000000000000081525082610378565b50565b7fd28579bc883b0888ddf2755dbeadd01c68905fb3b59748ca48d646eaeb701bd560008383604051808460ff1681526020018060200180602001838103835285818151815260200191508051906020019080838360005b838110156102d15780820151818401526020810190506102b6565b50505050905090810190601f1680156102fe5780820380516001836020036101000a031916815260200191505b50838103825284818151815260200191508051906020019080838360005b8381101561033757808201518184015260208101905061031c565b50505050905090810190601f1680156103645780820380516001836020036101000a031916815260200191505b509550505050505060405180910390a15050565b7fd28579bc883b0888ddf2755dbeadd01c68905fb3b59748ca48d646eaeb701bd560018383604051808460ff1681526020018060200180602001838103835285818151815260200191508051906020019080838360005b838110156103ea5780820151818401526020810190506103cf565b50505050905090810190601f1680156104175780820380516001836020036101000a031916815260200191505b50838103825284818151815260200191508051906020019080838360005b83811015610450578082015181840152602081019050610435565b50505050905090810190601f16801561047d5780820380516001836020036101000a031916815260200191505b509550505050505060405180910390a1505056fea165627a7a7230582099bae8ffbb1fd80d521542b07025be7202fffc2127604db4ce36a1dc6abcbe800029",
  "source": "pragma solidity 0.5.1;\n\ncontract StateLogs {\n    event addToLogs(uint8 command, string lable, string json);\n    //0 means add, 1 means remove\n    constructor() public {}\n    function addToState(string memory _lable, string memory _state) internal {\n        emit addToLogs(0, _lable, _state);\n    }\n    function removeFromState(string memory _lable, string memory _state) internal {\n        emit addToLogs(1, _lable, _state);\n    }\n}\n\n\n\n\ncontract StateLogTestContract is StateLogs {\n\n    constructor() public {\n        addToState(\"greeting\", \"Hello Wolrld\");\n    }\n    \n    function fireEventAdd(string memory _owner) public{\n        addToState('owners', _owner);\n    }\n\n    function fireEventRemove (string memory _owner) public {\n        removeFromState('owners', _owner);\n    }\n}",
  "sourcePath": "/home/evan/Desktop/ExecApp/truffle/contracts/StateLogs.sol",
  "compiler": {
    "name": "solc",
    "version": "0.5.1+commit.c8a2cb62.Emscripten.clang"
  },
  "schemaVersion": "3.0.11",
  "updatedAt": "2019-07-24T18:35:24.730Z",
  "devdoc": {
    "methods": {}
  },
  "userdoc": {
    "methods": {}
  }
}