{
  "contractName": "Tradeable",
  "abi": [
    {
      "constant": true,
      "inputs": [],
      "name": "getOwner",
      "outputs": [
        {
          "name": "",
          "type": "address"
        }
      ],
      "payable": false,
      "stateMutability": "view",
      "type": "function"
    },
    {
      "inputs": [],
      "payable": false,
      "stateMutability": "nonpayable",
      "type": "constructor"
    },
    {
      "constant": false,
      "inputs": [
        {
          "name": "to",
          "type": "address"
        }
      ],
      "name": "trade",
      "outputs": [],
      "payable": false,
      "stateMutability": "nonpayable",
      "type": "function"
    }
  ],
  "bytecode": "0x608060405234801561001057600080fd5b50336000806101000a81548173ffffffffffffffffffffffffffffffffffffffff021916908373ffffffffffffffffffffffffffffffffffffffff1602179055506101e6806100606000396000f3fe608060405260043610610046576000357c010000000000000000000000000000000000000000000000000000000090048063056ba0561461004b578063893d20e81461009c575b600080fd5b34801561005757600080fd5b5061009a6004803603602081101561006e57600080fd5b81019080803573ffffffffffffffffffffffffffffffffffffffff1690602001909291905050506100f3565b005b3480156100a857600080fd5b506100b1610191565b604051808273ffffffffffffffffffffffffffffffffffffffff1673ffffffffffffffffffffffffffffffffffffffff16815260200191505060405180910390f35b6000809054906101000a900473ffffffffffffffffffffffffffffffffffffffff1673ffffffffffffffffffffffffffffffffffffffff163373ffffffffffffffffffffffffffffffffffffffff1614151561014e57600080fd5b806000806101000a81548173ffffffffffffffffffffffffffffffffffffffff021916908373ffffffffffffffffffffffffffffffffffffffff16021790555050565b60008060009054906101000a900473ffffffffffffffffffffffffffffffffffffffff1690509056fea165627a7a72305820b7eeb5643d52e7f496b9d05f9a1dac67a1b1a41d972594fad2cdf8981dcf225a0029",
  "source": "pragma solidity 0.5.1;\n\n\n\ncontract Owned {\n    address payable owner;\n    constructor() public { \n      owner = msg.sender; \n    }\n    modifier onlyOwner {\n        require(msg.sender == owner);\n        _;\n    }\n    function getOwner() public view returns(address payable){\n        return owner;\n    } \n}\n\ncontract Tradeable is Owned {\n    constructor() public {}\n\n    function trade(address payable to) onlyOwner public{\n        owner = to;\n    }\n}\n\ncontract Purchasable is Owned{\n    uint64 price;\n    bool canPurchase;\n    \n    constructor() public {\n        canPurchase = false;\n    }\n\n    function setPrice(uint64 _price) onlyOwner public {\n        price = _price;\n    }\n\n    function isPurchasable() public view returns (bool) {\n        return canPurchase;\n    }\n\n    function setPurchasable(bool _canPurchase) onlyOwner public {\n        canPurchase = _canPurchase;\n    }\n\n    function() external {}\n\n    function getPrice() public view returns (uint64){\n        return price;\n    }\n\n    function buy() payable public returns (bool){\n        if (!canPurchase) {\n            return false;\n        }\n        require(msg.value >= price);\n        canPurchase = false;\n        owner = msg.sender;\n        return true;\n    }\n    \n}\ncontract Chargable is Owned{\n\n    constructor() public{        \n    }\n\n    modifier price(uint _cost) {\n        require(msg.value >= _cost);\n        _;\n        owner.transfer(msg.value);\n    }\n}\n\n\ncontract NameRegistry is Owned {\n\n    mapping (address=>string) names;\n    mapping (string=>address) addresses;\n    event add(address);\n\n    constructor(address payable _owner) public {\n        owner = _owner;\n    }\n\n    function addName(string memory _name, address _address) onlyOwner public returns (bool) \n    {\n        if (addresses[_name] != address(0))\n            return false;\n\n        names[_address] = _name;\n        addresses[_name] = _address;\n        emit add(_address);\n        return true;\n    }\n\n    function getName(address _address) public view returns (string memory)\n    {\n        return names[_address];\n    }\n\n    function getAddress(string memory _name) public view returns (address)\n    {\n        return addresses[_name];\n    }\n}\n\ncontract PlayerRegistry is Owned {\n\n    //map from accounts to player contracts\n    mapping (address=>Player) players;\n\n    constructor(address payable _owner) public {\n        owner = _owner;\n    }\n    function() external payable{}\n\n    function newPlayer(uint8[] memory statArray) public returns(bool){\n    \n        //not sure total\n        uint8 max = 72;\n        uint8 total = 0;\n        for (uint256 i=0; i< 6; i++){\n            if (statArray[i] > 16 || statArray[i] < 9)\n                return false;\n            \n            total += statArray[i];\n        }\n        if (total > max)\n            return false;\n        \n        players[msg.sender] = new Player(statArray, msg.sender);\n        return true;\n    }\n\n    function getPlayerByAddress(address _player) public view returns (Player) {\n        return players[_player];\n    }\n\n}\n\ninterface GameComponent {\n    function getStats() external view returns (uint8[8] memory);\n    function getOwner() external view returns (address payable);\n}\n\n/*\noffset\n0        str, \n1        dex, \n2        con, \n3        int, \n4        wis, \n5        chr, \n6        prof, \n7        level, \n8        hit_dice_number\n9       hit_dice_value \n10       armor 5\n*/\n\n//TODO use maps, always use maps, arrays are terrible\ncontract Player is Owned{\n    uint8[] stats;\n    GameComponent[] items;\n\n    constructor(uint8[] memory _stats, address payable _owner) public {\n        owner = _owner;\n        stats = _stats;\n    }\n\n    function getItems() public view returns (GameComponent[] memory) {\n        return items;\n    }\n\n    function addItem(NameRegistry _itemRegistry, string memory _item) onlyOwner public returns (uint8){\n        \n        address item = _itemRegistry.getAddress(_item);\n        bool addedAddress = false;\n        if (item == address(0))\n            return 1;\n\n        Item i = Item(item); \n        if (i.getOwner() != owner)\n            return 2;\n\n        uint16 len = uint16(items.length);\n        for (uint16 l = 0; l < len; l++) {\n            if (items[l].getOwner() != owner) {\n                if (addedAddress)\n                    delete items[l];\n                else {\n                    items[l] = i;\n                    addedAddress = true;\n                } \n            }\n            if (i == items[l])\n                return 3;\n         }\n\n        if (addedAddress)\n           return 0;\n\n        items.push(i);\n\n        return 0;\n    }\n\n    function getStats() public view returns (uint8[] memory){\n        return stats;\n    }\n\n}\n\ncontract Item is GameComponent, Purchasable, Tradeable {\n\n    uint8[8] stats;\n    constructor(uint8[8] memory _stats) public {\n        stats = _stats;\n    }\n\n    function getStats() external view returns (uint8[8] memory){\n        return stats;\n    } \n}\n\n\ncontract Game is Owned {\n\n    PlayerRegistry playerRegistries;\n    NameRegistry itemRegistries;\n\n    constructor() public {\n        itemRegistries = new NameRegistry(msg.sender);\n        playerRegistries = new PlayerRegistry(msg.sender);\n    }\n\n    function getPlayerRegistry() public view returns (PlayerRegistry){\n        return playerRegistries;\n    }\n\n    function getItemRegistry() public view returns (NameRegistry) {\n        return itemRegistries;\n    }\n}",
  "sourcePath": "/home/evan/Desktop/ExecApp/truffle/contracts/GameRegistries.sol",
  "compiler": {
    "name": "solc",
    "version": "0.5.1+commit.c8a2cb62.Emscripten.clang"
  },
  "schemaVersion": "3.0.11",
  "updatedAt": "2019-07-24T18:35:24.725Z",
  "devdoc": {
    "methods": {}
  },
  "userdoc": {
    "methods": {}
  }
}